{
  "transactions": [
    {
      "hash": "0x55f2b8b98201aecd06d98e809d06b17f7337dfca7358b43bc13d9904a97ab950",
      "transactionType": "CREATE",
      "contractName": "GHO",
      "contractAddress": "0x48D662D1D10505f9bf25c993f30c40118A37E7a2",
      "function": null,
      "arguments": [
        "100000000000000000000 \u001b[2;49;39m[1e20]\u001b[0m"
      ],
      "rpc": "https://rpc.tenderly.co/fork/c1bacb8b-28af-448f-8155-97c479e9177d",
      "transaction": {
        "type": "0x02",
        "from": "0xf39fd6e51aad88f6f4ce6ab8827279cfffb92266",
        "gas": "0xc3d01",
        "value": "0x0",
        "data": "0x60806040523480156200001157600080fd5b5060405162000b8738038062000b87833981016040819052620000349162000173565b6040518060400160405280600381526020016247484f60e81b8152506040518060400160405280600381526020016267686f60e81b81525081600390816200007d919062000231565b5060046200008c828262000231565b505050620000a13382620000a860201b60201c565b5062000325565b6001600160a01b038216620001035760405162461bcd60e51b815260206004820152601f60248201527f45524332303a206d696e7420746f20746865207a65726f206164647265737300604482015260640160405180910390fd5b8060026000828254620001179190620002fd565b90915550506001600160a01b038216600081815260208181526040808320805486019055518481527fddf252ad1be2c89b69c2b068fc378daa952ba7f163c4a11628f55a4df523b3ef910160405180910390a35050565b505050565b6000602082840312156200018657600080fd5b5051919050565b634e487b7160e01b600052604160045260246000fd5b600181811c90821680620001b857607f821691505b602082108103620001d957634e487b7160e01b600052602260045260246000fd5b50919050565b601f8211156200016e57600081815260208120601f850160051c81016020861015620002085750805b601f850160051c820191505b81811015620002295782815560010162000214565b505050505050565b81516001600160401b038111156200024d576200024d6200018d565b62000265816200025e8454620001a3565b84620001df565b602080601f8311600181146200029d5760008415620002845750858301515b600019600386901b1c1916600185901b17855562000229565b600085815260208120601f198616915b82811015620002ce57888601518255948401946001909101908401620002ad565b5085821015620002ed5787850151600019600388901b60f8161c191681555b5050505050600190811b01905550565b808201808211156200031f57634e487b7160e01b600052601160045260246000fd5b92915050565b61085280620003356000396000f3fe608060405234801561001057600080fd5b50600436106100a95760003560e01c80633950935111610071578063395093511461012357806370a082311461013657806395d89b411461015f578063a457c2d714610167578063a9059cbb1461017a578063dd62ed3e1461018d57600080fd5b806306fdde03146100ae578063095ea7b3146100cc57806318160ddd146100ef57806323b872dd14610101578063313ce56714610114575b600080fd5b6100b66101a0565b6040516100c3919061069c565b60405180910390f35b6100df6100da366004610706565b610232565b60405190151581526020016100c3565b6002545b6040519081526020016100c3565b6100df61010f366004610730565b61024c565b604051601281526020016100c3565b6100df610131366004610706565b610270565b6100f361014436600461076c565b6001600160a01b031660009081526020819052604090205490565b6100b6610292565b6100df610175366004610706565b6102a1565b6100df610188366004610706565b610321565b6100f361019b36600461078e565b61032f565b6060600380546101af906107c1565b80601f01602080910402602001604051908101604052809291908181526020018280546101db906107c1565b80156102285780601f106101fd57610100808354040283529160200191610228565b820191906000526020600020905b81548152906001019060200180831161020b57829003601f168201915b5050505050905090565b60003361024081858561035a565b60019150505b92915050565b60003361025a85828561047e565b6102658585856104f8565b506001949350505050565b600033610240818585610283838361032f565b61028d91906107fb565b61035a565b6060600480546101af906107c1565b600033816102af828661032f565b9050838110156103145760405162461bcd60e51b815260206004820152602560248201527f45524332303a2064656372656173656420616c6c6f77616e63652062656c6f77604482015264207a65726f60d81b60648201526084015b60405180910390fd5b610265828686840361035a565b6000336102408185856104f8565b6001600160a01b03918216600090815260016020908152604080832093909416825291909152205490565b6001600160a01b0383166103bc5760405162461bcd60e51b8152602060048201526024808201527f45524332303a20617070726f76652066726f6d20746865207a65726f206164646044820152637265737360e01b606482015260840161030b565b6001600160a01b03821661041d5760405162461bcd60e51b815260206004820152602260248201527f45524332303a20617070726f766520746f20746865207a65726f206164647265604482015261737360f01b606482015260840161030b565b6001600160a01b0383811660008181526001602090815260408083209487168084529482529182902085905590518481527f8c5be1e5ebec7d5bd14f71427d1e84f3dd0314c0f7b2291e5b200ac8c7c3b925910160405180910390a3505050565b600061048a848461032f565b905060001981146104f257818110156104e55760405162461bcd60e51b815260206004820152601d60248201527f45524332303a20696e73756666696369656e7420616c6c6f77616e6365000000604482015260640161030b565b6104f2848484840361035a565b50505050565b6001600160a01b03831661055c5760405162461bcd60e51b815260206004820152602560248201527f45524332303a207472616e736665722066726f6d20746865207a65726f206164604482015264647265737360d81b606482015260840161030b565b6001600160a01b0382166105be5760405162461bcd60e51b815260206004820152602360248201527f45524332303a207472616e7366657220746f20746865207a65726f206164647260448201526265737360e81b606482015260840161030b565b6001600160a01b038316600090815260208190526040902054818110156106365760405162461bcd60e51b815260206004820152602660248201527f45524332303a207472616e7366657220616d6f756e7420657863656564732062604482015265616c616e636560d01b606482015260840161030b565b6001600160a01b03848116600081815260208181526040808320878703905593871680835291849020805487019055925185815290927fddf252ad1be2c89b69c2b068fc378daa952ba7f163c4a11628f55a4df523b3ef910160405180910390a36104f2565b600060208083528351808285015260005b818110156106c9578581018301518582016040015282016106ad565b506000604082860101526040601f19601f8301168501019250505092915050565b80356001600160a01b038116811461070157600080fd5b919050565b6000806040838503121561071957600080fd5b610722836106ea565b946020939093013593505050565b60008060006060848603121561074557600080fd5b61074e846106ea565b925061075c602085016106ea565b9150604084013590509250925092565b60006020828403121561077e57600080fd5b610787826106ea565b9392505050565b600080604083850312156107a157600080fd5b6107aa836106ea565b91506107b8602084016106ea565b90509250929050565b600181811c908216806107d557607f821691505b6020821081036107f557634e487b7160e01b600052602260045260246000fd5b50919050565b8082018082111561024657634e487b7160e01b600052601160045260246000fdfea264697066735822122007d532a63012446bec683ff8b1518a03a8a3ffa4fbca4410df36b89310945b5064736f6c634300081300330000000000000000000000000000000000000000000000056bc75e2d63100000",
        "nonce": "0x7a1",
        "accessList": []
      },
      "additionalContracts": [],
      "isFixedGasLimit": false
    },
    {
      "hash": "0x101e4286c5ee446db8dafb23a5cc5bd155334550731292cbe95dc8803c7abbe5",
      "transactionType": "CALL",
      "contractName": "GHO",
      "contractAddress": "0x48D662D1D10505f9bf25c993f30c40118A37E7a2",
      "function": "approve(address,uint256):(bool)",
      "arguments": [
        "0xdaE97900D4B184c5D2012dcdB658c008966466DD",
        "115792089237316195423570985008687907853269984665640564039457584007913129639935 \u001b[2;49;39m[1.157e77]\u001b[0m"
      ],
      "rpc": "https://rpc.tenderly.co/fork/c1bacb8b-28af-448f-8155-97c479e9177d",
      "transaction": {
        "type": "0x02",
        "from": "0xf39fd6e51aad88f6f4ce6ab8827279cfffb92266",
        "to": "0x48d662d1d10505f9bf25c993f30c40118a37e7a2",
        "gas": "0xfb37",
        "value": "0x0",
        "data": "0x095ea7b3000000000000000000000000dae97900d4b184c5d2012dcdb658c008966466ddffffffffffffffffffffffffffffffffffffffffffffffffffffffffffffffff",
        "nonce": "0x7a2",
        "accessList": []
      },
      "additionalContracts": [],
      "isFixedGasLimit": false
    },
    {
      "hash": "0xe2260a01a138dcb092cad7e12cd7d5bab2b374697b47d58bdfbfece10801941c",
      "transactionType": "CALL",
      "contractName": "GHO",
      "contractAddress": "0x48D662D1D10505f9bf25c993f30c40118A37E7a2",
      "function": "approve(address,uint256):(bool)",
      "arguments": [
        "0x238213078DbD09f2D15F4c14c02300FA1b2A81BB",
        "115792089237316195423570985008687907853269984665640564039457584007913129639935 \u001b[2;49;39m[1.157e77]\u001b[0m"
      ],
      "rpc": "https://rpc.tenderly.co/fork/c1bacb8b-28af-448f-8155-97c479e9177d",
      "transaction": {
        "type": "0x02",
        "from": "0xf39fd6e51aad88f6f4ce6ab8827279cfffb92266",
        "to": "0x48d662d1d10505f9bf25c993f30c40118a37e7a2",
        "gas": "0xfb37",
        "value": "0x0",
        "data": "0x095ea7b3000000000000000000000000238213078dbd09f2d15f4c14c02300fa1b2a81bbffffffffffffffffffffffffffffffffffffffffffffffffffffffffffffffff",
        "nonce": "0x7a3",
        "accessList": []
      },
      "additionalContracts": [],
      "isFixedGasLimit": false
    },
    {
      "hash": "0x5f71dfcec808dbfe7e524d8ff61039aecdcdbde3367f549d0ec115b5579bb7da",
      "transactionType": "CALL",
      "contractName": "GHO",
      "contractAddress": "0x48D662D1D10505f9bf25c993f30c40118A37E7a2",
      "function": "approve(address,uint256):(bool)",
      "arguments": [
        "0xdaE97900D4B184c5D2012dcdB658c008966466DD",
        "115792089237316195423570985008687907853269984665640564039457584007913129639935 \u001b[2;49;39m[1.157e77]\u001b[0m"
      ],
      "rpc": "https://rpc.tenderly.co/fork/c1bacb8b-28af-448f-8155-97c479e9177d",
      "transaction": {
        "type": "0x02",
        "from": "0x70997970c51812dc3a010c7d01b50e0d17dc79c8",
        "to": "0x48d662d1d10505f9bf25c993f30c40118a37e7a2",
        "gas": "0xfb37",
        "value": "0x0",
        "data": "0x095ea7b3000000000000000000000000dae97900d4b184c5d2012dcdb658c008966466ddffffffffffffffffffffffffffffffffffffffffffffffffffffffffffffffff",
        "nonce": "0x47e",
        "accessList": []
      },
      "additionalContracts": [],
      "isFixedGasLimit": false
    },
    {
      "hash": "0x5d8bf3818fa964c7af01ab3172b412d415101028aa9a1656fb0055ff0ac397e9",
      "transactionType": "CALL",
      "contractName": "GHO",
      "contractAddress": "0x48D662D1D10505f9bf25c993f30c40118A37E7a2",
      "function": "approve(address,uint256):(bool)",
      "arguments": [
        "0x238213078DbD09f2D15F4c14c02300FA1b2A81BB",
        "115792089237316195423570985008687907853269984665640564039457584007913129639935 \u001b[2;49;39m[1.157e77]\u001b[0m"
      ],
      "rpc": "https://rpc.tenderly.co/fork/c1bacb8b-28af-448f-8155-97c479e9177d",
      "transaction": {
        "type": "0x02",
        "from": "0x70997970c51812dc3a010c7d01b50e0d17dc79c8",
        "to": "0x48d662d1d10505f9bf25c993f30c40118a37e7a2",
        "gas": "0xfb37",
        "value": "0x0",
        "data": "0x095ea7b3000000000000000000000000238213078dbd09f2d15f4c14c02300fa1b2a81bbffffffffffffffffffffffffffffffffffffffffffffffffffffffffffffffff",
        "nonce": "0x47f",
        "accessList": []
      },
      "additionalContracts": [],
      "isFixedGasLimit": false
    }
  ],
  "receipts": [
    {
      "transactionHash": "0x55f2b8b98201aecd06d98e809d06b17f7337dfca7358b43bc13d9904a97ab950",
      "transactionIndex": "0x0",
      "blockHash": "0x1531c195bea573aff709469a5ecd8285ea4fddbdf7641bdfef8f21187e9294c8",
      "blockNumber": "0x3514f3",
      "from": "0xf39Fd6e51aad88F6F4ce6aB8827279cffFb92266",
      "to": null,
      "cumulativeGasUsed": "0x96abd",
      "gasUsed": "0x96abd",
      "contractAddress": "0x48D662D1D10505f9bf25c993f30c40118A37E7a2",
      "logs": [
        {
          "address": "0x48D662D1D10505f9bf25c993f30c40118A37E7a2",
          "topics": [
            "0xddf252ad1be2c89b69c2b068fc378daa952ba7f163c4a11628f55a4df523b3ef",
            "0x0000000000000000000000000000000000000000000000000000000000000000",
            "0x000000000000000000000000f39fd6e51aad88f6f4ce6ab8827279cfffb92266"
          ],
          "data": "0x0000000000000000000000000000000000000000000000056bc75e2d63100000",
          "blockHash": "0x1531c195bea573aff709469a5ecd8285ea4fddbdf7641bdfef8f21187e9294c8",
          "blockNumber": "0x3514f3",
          "transactionHash": "0x55f2b8b98201aecd06d98e809d06b17f7337dfca7358b43bc13d9904a97ab950",
          "transactionIndex": "0x0",
          "logIndex": "0x0",
          "removed": false
        }
      ],
      "status": "0x1",
      "logsBloom": "0x00000000000000000000000000000000000000000000000000000000000000000000000000000000000000000000000000000000000000000000000000000000000100000000000000000008000000000000000000000000000000000000008000000000020000000000000100000800000000000000000000000010000000000000000000000000000000000000000000000000000000000000000000000000000000000000000000000000000000000000000000000000000000000000000000000002000000200000000000000000000000002000000000000000000020000000000000000000000000000000020000000000000000000000000000000000",
      "type": "0x2",
      "effectiveGasPrice": "0xb2d05e02"
    },
    {
      "transactionHash": "0x101e4286c5ee446db8dafb23a5cc5bd155334550731292cbe95dc8803c7abbe5",
      "transactionIndex": "0x0",
      "blockHash": "0xf97958ed99993f5b8f10b41134787bcf154ffd2b462d50b9c38d4c38acd362af",
      "blockNumber": "0x3514f4",
      "from": "0xf39Fd6e51aad88F6F4ce6aB8827279cffFb92266",
      "to": "0x48D662D1D10505f9bf25c993f30c40118A37E7a2",
      "cumulativeGasUsed": "0xb5e0",
      "gasUsed": "0xb5e0",
      "contractAddress": null,
      "logs": [
        {
          "address": "0x48D662D1D10505f9bf25c993f30c40118A37E7a2",
          "topics": [
            "0x8c5be1e5ebec7d5bd14f71427d1e84f3dd0314c0f7b2291e5b200ac8c7c3b925",
            "0x000000000000000000000000f39fd6e51aad88f6f4ce6ab8827279cfffb92266",
            "0x000000000000000000000000dae97900d4b184c5d2012dcdb658c008966466dd"
          ],
          "data": "0xffffffffffffffffffffffffffffffffffffffffffffffffffffffffffffffff",
          "blockHash": "0xf97958ed99993f5b8f10b41134787bcf154ffd2b462d50b9c38d4c38acd362af",
          "blockNumber": "0x3514f4",
          "transactionHash": "0x101e4286c5ee446db8dafb23a5cc5bd155334550731292cbe95dc8803c7abbe5",
          "transactionIndex": "0x0",
          "logIndex": "0x0",
          "removed": false
        }
      ],
      "status": "0x1",
      "logsBloom": "0x00000000000000000000000000000000000000000000000000000000000000000400000000000000000000000000000000000000000000000000000000200000000100000000000000000000000000000000000000000020000000000000008000000000000000000000000100000000000000000000000000000000000000000000000000000000000000200000000000000000000000000000000000000000020000000000000000000000000000000000000000000000000000000000000000000000000000200000000000000000000000002000000000000000000000000010000000000000000000000000020000000000000000000000000000000000",
      "type": "0x2",
      "effectiveGasPrice": "0xb2d05e02"
    },
    {
      "transactionHash": "0xe2260a01a138dcb092cad7e12cd7d5bab2b374697b47d58bdfbfece10801941c",
      "transactionIndex": "0x0",
      "blockHash": "0x3f097612d164193489835f91b086f664334163e3fa0fb46e286d1d4c93b18245",
      "blockNumber": "0x3514f5",
      "from": "0xf39Fd6e51aad88F6F4ce6aB8827279cffFb92266",
      "to": "0x48D662D1D10505f9bf25c993f30c40118A37E7a2",
      "cumulativeGasUsed": "0xb5e0",
      "gasUsed": "0xb5e0",
      "contractAddress": null,
      "logs": [
        {
          "address": "0x48D662D1D10505f9bf25c993f30c40118A37E7a2",
          "topics": [
            "0x8c5be1e5ebec7d5bd14f71427d1e84f3dd0314c0f7b2291e5b200ac8c7c3b925",
            "0x000000000000000000000000f39fd6e51aad88f6f4ce6ab8827279cfffb92266",
            "0x000000000000000000000000238213078dbd09f2d15f4c14c02300fa1b2a81bb"
          ],
          "data": "0xffffffffffffffffffffffffffffffffffffffffffffffffffffffffffffffff",
          "blockHash": "0x3f097612d164193489835f91b086f664334163e3fa0fb46e286d1d4c93b18245",
          "blockNumber": "0x3514f5",
          "transactionHash": "0xe2260a01a138dcb092cad7e12cd7d5bab2b374697b47d58bdfbfece10801941c",
          "transactionIndex": "0x0",
          "logIndex": "0x0",
          "removed": false
        }
      ],
      "status": "0x1",
      "logsBloom": "0x00000000000000000000000000000000000000000000000000000000000000000000000000000000000100000000000000000000000000000000000000200000000100000000000000000000000000000000000000000000000000000000008000000000000000000000000100000000000000000000000000000000000000000000000000000000000000000002000000000000000000000000000000000000020000000000000000000000000000000000000000000000000000000000000000000000000000200000000000000000000000002000000000000000000000000010000000000000000000000000020000000000000000000000000000000010",
      "type": "0x2",
      "effectiveGasPrice": "0xb2d05e02"
    },
    {
      "transactionHash": "0x5f71dfcec808dbfe7e524d8ff61039aecdcdbde3367f549d0ec115b5579bb7da",
      "transactionIndex": "0x0",
      "blockHash": "0x665d2e718ef4e4a1720bcd97603975623cb86e45107c6aa3bf1c196fba438e31",
      "blockNumber": "0x3514f6",
      "from": "0x70997970C51812dc3A010C7d01b50e0d17dc79C8",
      "to": "0x48D662D1D10505f9bf25c993f30c40118A37E7a2",
      "cumulativeGasUsed": "0xb5e0",
      "gasUsed": "0xb5e0",
      "contractAddress": null,
      "logs": [
        {
          "address": "0x48D662D1D10505f9bf25c993f30c40118A37E7a2",
          "topics": [
            "0x8c5be1e5ebec7d5bd14f71427d1e84f3dd0314c0f7b2291e5b200ac8c7c3b925",
            "0x00000000000000000000000070997970c51812dc3a010c7d01b50e0d17dc79c8",
            "0x000000000000000000000000dae97900d4b184c5d2012dcdb658c008966466dd"
          ],
          "data": "0xffffffffffffffffffffffffffffffffffffffffffffffffffffffffffffffff",
          "blockHash": "0x665d2e718ef4e4a1720bcd97603975623cb86e45107c6aa3bf1c196fba438e31",
          "blockNumber": "0x3514f6",
          "transactionHash": "0x5f71dfcec808dbfe7e524d8ff61039aecdcdbde3367f549d0ec115b5579bb7da",
          "transactionIndex": "0x0",
          "logIndex": "0x0",
          "removed": false
        }
      ],
      "status": "0x1",
      "logsBloom": "0x00000000000000000002000000000000000000000000000000000000000000000400000000000000000000000000000000000000000000000000000000200000000100000000000000000000000000000000000000000020000000000000008000000800000000000000000000000000000000000000000000000000000000000000000000000000000000200000000000000000000000000000000000000000020000000000000000000000000000000000000000000000000000000000000000000000000000000000000000000000000000000000000000000000000000000010000000000000000000000000020001000000000000000000000000000000",
      "type": "0x2",
      "effectiveGasPrice": "0xb2d05e02"
    },
    {
      "transactionHash": "0x5d8bf3818fa964c7af01ab3172b412d415101028aa9a1656fb0055ff0ac397e9",
      "transactionIndex": "0x0",
      "blockHash": "0xcbbfd65ef85b36d31445a11a5c8e0383b858724e2df493310e55369de8c44a85",
      "blockNumber": "0x3514f7",
      "from": "0x70997970C51812dc3A010C7d01b50e0d17dc79C8",
      "to": "0x48D662D1D10505f9bf25c993f30c40118A37E7a2",
      "cumulativeGasUsed": "0xb5e0",
      "gasUsed": "0xb5e0",
      "contractAddress": null,
      "logs": [
        {
          "address": "0x48D662D1D10505f9bf25c993f30c40118A37E7a2",
          "topics": [
            "0x8c5be1e5ebec7d5bd14f71427d1e84f3dd0314c0f7b2291e5b200ac8c7c3b925",
            "0x00000000000000000000000070997970c51812dc3a010c7d01b50e0d17dc79c8",
            "0x000000000000000000000000238213078dbd09f2d15f4c14c02300fa1b2a81bb"
          ],
          "data": "0xffffffffffffffffffffffffffffffffffffffffffffffffffffffffffffffff",
          "blockHash": "0xcbbfd65ef85b36d31445a11a5c8e0383b858724e2df493310e55369de8c44a85",
          "blockNumber": "0x3514f7",
          "transactionHash": "0x5d8bf3818fa964c7af01ab3172b412d415101028aa9a1656fb0055ff0ac397e9",
          "transactionIndex": "0x0",
          "logIndex": "0x0",
          "removed": false
        }
      ],
      "status": "0x1",
      "logsBloom": "0x00000000000000000002000000000000000000000000000000000000000000000000000000000000000100000000000000000000000000000000000000200000000100000000000000000000000000000000000000000000000000000000008000000800000000000000000000000000000000000000000000000000000000000000000000000000000000000002000000000000000000000000000000000000020000000000000000000000000000000000000000000000000000000000000000000000000000000000000000000000000000000000000000000000000000000010000000000000000000000000020001000000000000000000000000000010",
      "type": "0x2",
      "effectiveGasPrice": "0xb2d05e02"
    }
  ],
  "libraries": [],
  "pending": [],
  "path": "/home/markus/projects/hackathons/geist/contracts/broadcast/Deploy.s.sol/11155111/run-latest.json",
  "returns": {},
  "timestamp": 1683995463,
  "chain": 11155111,
  "multi": false,
  "commit": "1382aba"
}